:100000000AC008C007C006C005C004C003C002C0C3
:1000100001C000C01895112410E0A0E6B0E0EEEE9B
:10002000F3E002C005900D92A436B107D9F720E0A5
:10003000A4E6B0E001C01D92AE37B207E1F77894B4
:10004000BC9AC498B898C09ABB9A01E017E0CFEF69
:10005000D0E0B0990BC0809164008F5F8093640002
:100060008A3008F0C49A1092600016C08091600037
:10007000811110C0809164008A3050F48091680032
:100080008F5F843018F48093680002C0109268007B
:10009000109264000093600080916800813049F103
:1000A00038F0823009F468C0833009F46AC0C7C0F0
:1000B000F09062006F2D70E075956795CB01059704
:1000C0004AE0880F51D180916100882311F0F394A8
:1000D00001C0FA94F092620080916200843118F0BD
:1000E00010926100ACC08B3008F0A9C00093610091
:1000F000A6C04AE065E080E037D120916700283053
:1001000058F4822F90E063E070E039D1FC01E759A8
:10011000FF4F10831183128331E0320F383058F4CF
:10012000832F90E063E070E02AD1FC01E759FF4F94
:1001300010831183128380916600811119C0809110
:100140006100882319F03093670005C0222319F05D
:1001500021502093670080916700863018F010923C
:10016000610004C081116BC00093610085E001C093
:1001700081508093660063C047E067E087E0F4D079
:100180005EC0E9E6F0E040E0F09065002F2D240F1E
:100190002535B0F430E0C9016EE170E0F0D0BE0169
:1001A000FFD06083C9016DEF7FEFE9D081509F4F91
:1001B0006AE070E0E4D0BE01F3D0618312822BC00C
:1001C0002A3A98F4255530E0C9016DEF7FEFD7D07A
:1001D00081509F4F6AE070E0D2D0BE01E1D06083D1
:1001E0001182C9016EE170E012C010822A5A30E01B
:1001F000C9016EE170E0C3D0BE01D2D06183C901F4
:100200006DEF7FEFBCD081509F4F6AE070E0B7D0B8
:10021000BE01C6D06283F394F394F09265008BE044
:1002200090E006C0AFE5B9E01197F1F700C000001B
:100230000197C1F7405F3396403809F0A5CF409150
:100240006B0060916A0080916900BB9AC398B0EA24
:10025000BA95F1F700001ED089E6E82E80E0F82E6E
:10026000F70145816481838115D0F3E0EF0EF11C25
:100270008EE7E81680E0F80699F707C0AFE5B9E029
:100280001197F1F700C0000002C085E690E00197E9
:10029000A9F7DFCE0F931F93BB9A98B3292F277F1F
:1002A0009860062F10E8012311F411C0000098BBDC
:1002B0000000169530F000C0062F012328BBB1F7CF
:1002C00006C010E8082F012328BB91F422C098BB78
:1002D000169538F0000028BB00C0062F012331F727
:1002E000F6CF28BB000010E8082F012309F411C045
:1002F000000098BB0000169530F000C0082F0123C5
:1003000028BBB1F706C010E8042F012328BB91F4E5
:100310001DC098BB169538F0000028BB00C0082F00
:10032000012331F7F6CF28BB000010E8042F01238A
:1003300009F40CC0000098BB00C0169530F0000016
:10034000042F012328BBB1F701C00AC098BB169542
:1003500038F0000028BB00C0042F012359F7F6CF66
:1003600028BB1F910F910895E9E6F0E08083618337
:100370004283339690E0E138F907C1F708950024ED
:10038000552704C0080E591F880F991F009729F0A0
:1003900076956795B8F37105B9F7802D952F089577
:1003A00097FB072E16F4009406D077FD08D00BD0EB
:1003B00007FC05D03EF4909581959F4F0895709568
:1003C00061957F4F0895AA1BBB1B51E107C0AA1F6F
:1003D000BB1FA617B70710F0A61BB70B881F991FE6
:0E03E0005A95A9F780959095BC01CD0108951E
:0403EE0001010A00FF
:00000001FF
